:0A021700C109C1080408000000003E
:0401AA00AB07AA06EF
:1001AE009000007C007DC8AF03AE021200FFEF246A
:1001BE00FFFFEE34FFFED3E5829FE5839E5003A33F
:0201CE0080E1CE
:0101D000220C
:10018200E4FDFCEF24FFFBEE34FFFAD3ED9BEC9A87
:100192005015E4FBFA0BBB00010AEB64794A70F5D7
:0701A2000DBD00010C80DC23
:0101A9002233
:10008F00120207D2B51201D192091201549208300F
:10009F000955200852E4F50C1201EF92001201EFFE
:1000AF0092011201EF92021201EF92031201EF92ED
:1000BF00041201EF92051201EF92061201EF92075F
:1000CF007408250CF8A620050CE50CC3940440C851
:1000DF00E4F50C7408250CF8E6F5993099FDC299F2
:1000EF00050CE50CB404EC7FF47E011201828095BF
:10020700759850438920758DFDD28EC2AFC2AC223E
:1001D100D20AE4F920B5FDE4F97F207E031201AAD9
:0D01E10030B504C20A800409B909EEA20A73
:0101EE0022EE
:10015400D20A30B5FD7F017E001201821201827F36
:10016400C81201AA7FC87E001201AA7FC87E0012AD
:0D01740001AA20B504D20A8002C20AA20A24
:01018100225B
:1001EF0030B5FD7F207E031201AA30B5097F017E55
:0801FF0000120182D322C32289
:03000000020003F8
:0C000300787FE4F6D8FD75812102004AE8
:1000FF00BC000BBE0029EF8DF084FFADF022E4CCE5
:10010F00F875F008EF2FFFEE33FEEC33FCEE9DECAD
:10011F00984005FCEE9DFE0FD5F0E9E4CEFD22EDF3
:10012F00F8F5F0EE8420D21CFEADF075F008EF2F3D
:10013F00FFED33FD4007985006D5F0F222C398FD2E
:05014F000FD5F0EA22CB
:10000F0002008FE493A3F8E493A34003F68001F278
:10001F0008DFF48029E493A3F85407240CC8C333F2
:10002F00C4540F4420C8834004F456800146F6DFC1
:10003F00E4800B0102040810204080900217E47E38
:10004F00019360BCA3FF543F30E509541FFEE493B6
:10005F00A360010ECF54C025E060A840B8E493A37D
:10006F00FAE493A3F8E493A3C8C582C8CAC583CAA8
:10007F00F0A3C8C582C8CAC583CADFE9DEE780BE60
:0102210000DC
:00000001FF
